{
  "address": "0x58CB18483D4E879f2b18A96264912e1c2D0B96f6",
  "abi": [
    {
      "inputs": [
        {
          "internalType": "int256",
          "name": "initialAnswer",
          "type": "int256"
        }
      ],
      "stateMutability": "nonpayable",
      "type": "constructor"
    },
    {
      "anonymous": false,
      "inputs": [
        {
          "indexed": true,
          "internalType": "int256",
          "name": "current",
          "type": "int256"
        },
        {
          "indexed": true,
          "internalType": "uint256",
          "name": "roundId",
          "type": "uint256"
        },
        {
          "indexed": false,
          "internalType": "uint256",
          "name": "updatedAt",
          "type": "uint256"
        }
      ],
      "name": "AnswerUpdated",
      "type": "event"
    },
    {
      "inputs": [],
      "name": "decimals",
      "outputs": [
        {
          "internalType": "uint8",
          "name": "",
          "type": "uint8"
        }
      ],
      "stateMutability": "pure",
      "type": "function"
    },
    {
      "inputs": [],
      "name": "getTokenType",
      "outputs": [
        {
          "internalType": "uint256",
          "name": "",
          "type": "uint256"
        }
      ],
      "stateMutability": "pure",
      "type": "function"
    },
    {
      "inputs": [],
      "name": "latestAnswer",
      "outputs": [
        {
          "internalType": "int256",
          "name": "",
          "type": "int256"
        }
      ],
      "stateMutability": "view",
      "type": "function"
    }
  ],
  "transactionHash": "0x35e53f372247b0856e20c60453beb9a9e42932f2c3ddb2c6d8bc4359b32e2f49",
  "args": [
    "3000000000"
  ],
  "numDeployments": 1,
  "solcInputHash": "f83ccc030186e5b58439131350431de3",
  "bytecode": "0x608060405234801561001057600080fd5b5060405161013838038061013883398101604081905261002f9161006f565b600081815560405142815282907f0559884fd3a460db3073b7fc896cc77986f16e378210ded43186175bf646fc5f9060200160405180910390a350610088565b60006020828403121561008157600080fd5b5051919050565b60a2806100966000396000f3fe6080604052348015600f57600080fd5b5060043610603c5760003560e01c8063313ce56714604157806350d25bcd146055578063fcab1819146066575b600080fd5b604051600881526020015b60405180910390f35b6000545b604051908152602001604c565b6001605956fea26469706673582212203a872d60c827ac7f4c6f0230536e38db03df6836ee905a53c50cf27cbbf5226664736f6c634300080a0033",
  "devdoc": {
    "kind": "dev",
    "methods": {},
    "version": 1
  },
  "userdoc": {
    "kind": "user",
    "methods": {},
    "version": 1
  },
  "storageLayout": {
    "storage": [
      {
        "astId": 9037,
        "contract": "@aave/core-v3/contracts/mocks/oracle/CLAggregators/MockAggregator.sol:MockAggregator",
        "label": "_latestAnswer",
        "offset": 0,
        "slot": "0",
        "type": "t_int256"
      }
    ],
    "types": {
      "t_int256": {
        "encoding": "inplace",
        "label": "int256",
        "numberOfBytes": "32"
      }
    }
  }
}